:020000040800F2
:1000000010070020C50000089D0F0008030F00081E
:1000100000000000000000000000000000000000E0
:10002000000000000000000000000000A10F000818
:1000300000000000000000009F0F0008A30F000850
:10004000D7000008D7000008D7000008D700000834
:10005000D7000008D7000008D7000008D700000824
:1000600000000000D7000008D7000008D7000008F3
:10007000D7000008D7000008D7000008D700000804
:10008000D70000080000000000000000D7000008B2
:1000900000000000D7000008D7000008D7000008C3
:1000A00000000000D700000800000000D91300087D
:1000B0000348854600F08EF800480047D114000838
:1000C000100700200448804704480047FEE7FEE789
:1000D000FEE7FEE7FEE7FEE7FD0F0008B1000008BF
:1000E00030B50B46014600202022012409E00D46D0
:1000F000D5409D4205D31D469540491B2546954058
:1001000040191546521E002DF1DC30BDF0B51FB46C
:100110000646002082B005464024019100901BE075
:10012000019922460F46304600F020F8049A059BBC
:10013000801A994110D310461946224600F039F82A
:10014000361A8F410197224601200021009F00F0BE
:1001500030F838184D4100902046641E0028DFDC3E
:10016000019B00982946324607B0F0BD10B5202A01
:1001700004DB0846203AD040002110BD0B46D34096
:10018000D0402024A21A91400843194610BDD2B293
:1001900001E00270401C491EFBD270470022F6E7C6
:1001A00010B513460A4604461946FFF7F0FF2046ED
:1001B00010BD10B5202A04DB0146203A91400020F2
:1001C00010BD914020239C1A0346E3401943904000
:1001D00010BD0000064C0125064E05E0E36807CC83
:1001E0002B430C3C98471034B442F7D3FFF764FF1D
:1001F0001417000834170008F8B5054600240F4FFF
:100200000F4E16E001220821384600F0EFF8285D75
:100210003021FFF765FF0846F168484300F036F8E3
:1002200000220821384600F0E1F8641CF06800F074
:100230002DF8285D0028E5D1F8BD00000004004835
:100240000000002070B50024014620314A78022ABF
:1002500003D004218163012416E0026813680E258F
:10026000AB431360026813685B085B0013600122F4
:10027000056C1346AB40C56B6B604A7000220A7078
:10028000416B002900D08847204670BD70B50446F8
:1002900000F0B2F80546601C02D00448007824182B
:1002A00000F0AAF8401BA042FAD370BD78000020ED
:1002B000F8B5002389E001249C402A46A446224048
:1002C0007ED04C68022C01D0122C0CD1DC08A4008A
:1002D00027183C6A5D07ED0E0F26AE40B4430E6949
:1002E000AE4026433E6205685E000324B4400F79A9
:1002F000A543BF07BF0FB7402F4307604D68012DCF
:1003000005D0022D03D0112D01D0122D0ED18568FC
:10031000CF68A543B7402F43876047686546AF4322
:100320000D79ED06ED0F9D403D434560C568A54341
:100330008C68B4402C43C4604C68E40044D5264C1F
:10034000A56901263543A561A4699D083440009440
:10035000224CAD002F19BC689D072E0F0F25B5400C
:10036000AC430925ED06A84201D100250AE01C4D49
:10037000A84201D1012505E01A4DA84201D102256C
:1003800000E00525B5402543BD60174C25684E6843
:100390009543F60300D51543256065684E6895437F
:1003A000B60300D515436560A5684E689543F6020F
:1003B00000D51543A560E5684E689543B60200E098
:1003C00002E000D51543E5605B1C0A681546DA407B
:1003D00000D070E7F8BD00000010024000000140AE
:1003E000000400480008004800040140002A01D031
:1003F00081617047816270470148806870470000E2
:10040000780000200248816802788918816070476E
:100410007800002010B506480168102211430160E1
:10042000002000F007F800F027F8002010BD0000C1
:100430000020024070B504460D4D7D202978C00093
:10044000FFF74EFE01460B480068FFF749FE00F03B
:1004500043FB002809D1042C07D200222146401E6C
:1004600000F02AF800206C6070BD012070BD000013
:10047000780000208400002008B508488169012226
:1004800011438161816911400091C26901040A43ED
:10049000C261C0690840009008BD00000010024021
:1004A000002805DBC106C90E01208840014908600B
:1004B0007047000000E100E010B500F0ADFF10BD96
:1004C000F8B505460068354CC00352D5E0690026F2
:1004D000C00007D4E16920040143E161E169014002
:1004E000012600912E480168C90510D401688215C3
:1004F00011430160FFF780FF074604E0FFF77CFF30
:10050000C01B642824D826480068C005F6D5206A98
:1005100003273F02384020D06968394081421CD00F
:10052000206A226AB843012109040A432262226A2E
:100530008A4322622062C0070FD0FFF75DFF009060
:1005400008E0FFF759FF0099411A1648814201D986
:100550000320F8BD206A8007F3D5206A6968B84394
:1005600008432062002E04D0E16901200007814386
:10057000E1612878C00705D0206BA9688008800059
:10058000084320632878800605D5206B1021884316
:10059000E968084320630020F8BD00000010024015
:1005A0000070004088130000F8B50F46060059D0CF
:1005B0003A4D2868C007C00FB84209D228684008E1
:1005C0004000384328602868C007C00FB84249D1AE
:1005D0003068334C81070CD5400704D5606807218B
:1005E0000902084360606068F0218843B1680843ED
:1005F00060603078C00726D0706801280ED021686E
:1006000002280ED0890700292CDA61688908890040
:1006100001436160FFF7F0FE00900DE0216889035F
:10062000F1E78901EFE7FFF7E7FE0099411A1D485E
:10063000814201D90320F8BD60680C21084071682F
:1006400089008842EFD12868C007C00FB8420BD993
:10065000286840084000384328602868C007C00F59
:10066000B84201D00120F8BD3078400706D5606857
:10067000072109028843F1680843606000F028F808
:100680006168094A0906090F515CC84007490860BA
:100690000020FFF7CFFE0020F8BD00000020024040
:1006A0000010024088130000621600088400002039
:1006B0000448054900684968044A4905490F515CE6
:1006C000C8407047840000200010024072160008E5
:1006D00010B514A30FCB88B06C460FC415A30FCB75
:1006E0000FC4184A51680C200B4603401648042BCF
:1006F00016D0082B14D18B021B0F6C46E45CD26A17
:1007000004AB1207120F9A5CC90305D500231946E2
:10071000FFF7FCFC214601E020460C4900F064FE96
:1007200008B010BD02030405060708090A0B0C0DEA
:100730000E0F10100102030405060708090A0B0C2E
:100740000D0E0F100010024000127A0000093D004B
:10075000FEB5040070D02078DC4DC0074AD0686830
:100760000007800F012807D068680007800F022863
:1007700009D16868C00306D5286880033AD5606847
:100780000028E7D036E06168012914D001208004F8
:10079000002901D0052914D02A68012109048A43BF
:1007A0002A602968814329606068002816D0FFF715
:1007B00023FE06460EE0286801210904084328604C
:1007C000F2E7296801432960F5E7FFF715FE801B72
:1007D00064286ED828688003F7D50BE0FFF70CFE7D
:1007E000064604E0FFF708FE801B6428F1D828685D
:1007F0008003F7D420780126800700283CDA686857
:100800000007800F07D068680007800F022809D111
:100810006868C00306D42868800716D5E0680128F8
:100820000AD112E0E0680028286816D0304328601A
:10083000FFF7E2FD074605E043E1FFF7DDFDC01BE2
:100840000228C6D828688007F7D52868F821884389
:100850002169C900084328600EE040084000286074
:10086000FFF7CAFD074604E0FFF7C6FDC01B0228DC
:10087000AFD828688007F7D42078000722D5E06930
:100880000028686A0ED030436862FFF7B5FD07465E
:1008900004E0FFF7B1FDC01B02289AD8686A800700
:1008A000F7D50FE0400840006862FFF7A5FD074656
:1008B00005E09DE0FFF7A0FDC01B022889D8686A0B
:1008C0008007F7D4207804274007002860DA00204A
:1008D0000190E869C00008D4E969B8060143E961FC
:1008E000E969014001200091019079480168C9053A
:1008F00011D40168821511430160FFF77DFD00905E
:1009000005E0FFF779FD0099401A642870D8704817
:100910000068C005F5D5A06801280AD0002801D0DC
:10092000052810D0286A400840002862286AB84389
:1009300001E0286A30432862A068002812D0FFF73F
:100940005BFD00900AE0286A38432862F1E7FFF770
:1009500053FD0099411A5F48814249D8286A8007AF
:10096000F5D50DE0FFF748FD009006E0FFF744FDE8
:100970000099411A574881423AD8286A8007F5D42D
:100980000198002804D0E969012000078143E9614A
:100990002078C00635D5606901280CD0401D686BF1
:1009A00023D038436863686B400840006863FFF7F2
:1009B00023FD064622E0686B38436863686B30436A
:1009C0006863FFF719FD064604E0FFF715FD801B7D
:1009D00002285BD8686B8007F7D5686BF8218843DD
:1009E000A169C900084368630BE0B8436863F4E792
:1009F0004CE0FFF701FD801B022847D8686B800799
:100A0000F7D4206A00285ED069680907890F022997
:100A100042D0012636060228286805D0B043286057
:100A2000FFF7EAFC044633E0B0432860FFF7E4FC3C
:100A3000074604E0FFF7E0FCC01B022826D8286820
:100A40008001F7D4E86AE16A000900010843E8621E
:100A5000616AA06A084369683D2212049143084311
:100A60006860286830432860FFF7C6FC044604E04D
:100A7000FFF7C2FC001B022808D828688001F7D5C0
:100A800021E0FFF7B9FC001B022801D90320FEBDBD
:100A900028688001F5D416E00128F8D06868E96A72
:100AA00001221204636A02409A420AD10907E26AEB
:100AB000090F914205D10F2189040840A16A88429B
:100AC00001D00120FEBD0020FEBD0000001002404C
:100AD0000070004088130000094910B5401E88428C
:100AE00001D9012010BD074C60610321081F00F0EF
:100AF00093FC0020A06107202061002010BD0000B1
:100B0000FFFFFF0000E000E070477047F8B50268A3
:100B10000446D06911689368524D05402E46202541
:100B2000002E68D0DE07F60FFF2721370F4037432E
:100B300075D0C70706D0CF0504D501271762E26F2D
:100B40003A43E267820708D5DA0706D0276802220F
:100B50003A62E26F04273A43E267420708D5DA07B0
:100B600006D0236804221A62E26F02231A43E26766
:100B7000020709D50A462A40324305D023680822D5
:100B80001A62E36F1343E367020508D54A0106D5ED
:100B900001222368D2021A62E26F2A43E267E26FFF
:100BA000002A30D0800606D5880604D5216E00299B
:100BB00001D020468847E06F21688968490602D441
:100BC0002821084224D0204600F0B8FA2068816825
:100BD000490619D58168402291438160E06E002862
:100BE00012D021494163E06EFFF72CFB00280AD0A8
:100BF000E06E416B06E0860611D58E060FD5216E9C
:100C00001DE020468847F8BD2046FFF77EFFF8BD6F
:100C10002046FFF77AFF0020E067F8BDFFE7C60235
:100C200008D55B0206D50120000510622046FFF7BB
:100C30006BFFF2E7030605D50B0603D5616E0029AD
:100C4000DFD1EAE74006E8D54806E6D51368204636
:100C500040218B43136065670021616600F04FF906
:100C6000DBE700000F0800002911000810B50400A0
:100C700003D0606F002802D007E0012010BD0021E2
:100C800070200155204600F027F824206067206876
:100C90000168490849000160204600F0B7FA0128C0
:100CA000ECD0606A002802D0204600F0A8F9206845
:100CB00041680922D20291434160206881682A225A
:100CC0009143816020680168012211430160204640
:100CD00000F0FAF910BD000010B586B004461421EA
:100CE0006846FFF75BFA16492068884226D1154806
:100CF0008269012189030A43826182690A4005925F
:100D00004269C9000A4342614069084005900E48A3
:100D10000090022001900020029003200390012007
:100D2000049009206946C006FFF7C2FA0022114666
:100D30001B20FFF7C1FB1B20FFF7B2FB06B010BD65
:100D4000003801400010024004800000F0B5836FBD
:100D5000202B49D100290AD0002A08D08568DC015F
:100D6000A54206D10369002B03D1CB0701D0012096
:100D7000F0BD034660331E7C012E35D001271F7461
:100D80004165014640310A834A830022FF260266FC
:100D9000A54204D10569002D22D1144D1EE0002D7D
:100DA00018D08A83C2672221816701688D683D431C
:100DB0008D608168A14202D10169002912D00C49DD
:100DC00001661A7400680168FF2221321143016034
:100DD0000020F0BD0569002D02D07F258D83E1E75D
:100DE0008E83DFE70349EBE70220F0BDFF0100003F
:100DF000B51100085D1100080B4910B588420FD1EC
:100E00000A4C606800782A280BD0002000F020FCF3
:100E1000616801224860014660600348FFF796FF61
:100E200010BD0120A06010BD900000200000002037
:100E3000FFB50446406F83B017460D4620285CD1AD
:100E4000002D0AD0002F08D0A168C001814207D12F
:100E50002069002804D1E80702D0012007B0F0BDC6
:100E6000204660300290007C012846D00298012183
:100E700001740020E06721206067FFF7BDFA264675
:100E800040360190378277820120A16800038142B9
:100E900002D12069002802D02F46002511E000274A
:100EA0000FE000228021204600F048FA002815D1EA
:100EB000002F15D02168387808857F1C708A401E65
:100EC0007082708A019B002806980090E9D1002268
:100ED0004021204600F032FA002808D00320BDE768
:100EE00028882168C005C00D0885AD1CE6E72020D4
:100EF0006067029900200874B0E70220AEE700BFE7
:100F00007047FEE710B586B014216846FFF746F932
:100F100014484269012189050A43426142690A4035
:100F20000592426949110A43426142690A400592A9
:100F3000426949000A43426140690B4C08400590F0
:100F4000002208212046FFF751FA082000900021D6
:100F5000012002910391019069462046FFF7A8F90C
:100F600006B010BD001002400004004810B50A4849
:100F7000084901604B214902416000218160C16044
:100F800001618161C1610C22016242614162FFF72E
:100F90006DFE10BD00380140900000207047704782
:100FA000704710B5FFF72EFA10BD30B595B030215F
:100FB0006846FFF7F3F800240F9402200D940E9476
:100FC000009012940125139410200C940395049022
:100FD0001094119408946846FFF7BAFB07200C9010
:100FE0000D940E9400210F940CA8FFF7DDFA10A8C1
:100FF00010951294FFF764FA15B030BD704710B524
:10100000818CC90707D001684A6801235B049A43B1
:10101000836A1A434A60818C890707D501684A6848
:1010200001231B049A43C36A1A434A60818C49070F
:1010300007D501684A6801239B049A43036B1A434E
:101040004A60818C090707D501684A680123DB03E0
:101050009A43436B1A434A60818CC90607D50268DC
:10106000916801231B039943836B19439160818C21
:10107000890607D501688A6801235B039A43C36B1D
:101080001A438A60818C490612D503685A68012187
:101090000905046C8A4322435A60026C8A4207D1D4
:1010A0000268516803235B059943436C19435160FF
:1010B000818C090607D501684A680123DB04806C2E
:1010C0009A4302434A6010BDF8B500260446C6673D
:1010D000FFF792F9054620680068124F000709D50E
:1010E00001212B46002249052046009700F026F9F1
:1010F00000280DD12068006840070BD501212B4640
:10110000002289052046009700F018F9002801D038
:101110000320F8BD20206067A0676034267400209B
:10112000F8BD0000FFFFFF0110B5406A0022014634
:1011300040314A834A82FFF7E8FC10BD01680A6823
:10114000FF2321339A430A6001688A6852085200DB
:101150008A602021816700210166704710B5014631
:1011600040318B8B846F0268222C04D09069082157
:101170000843906110BD928C446D1A402280426DEC
:10118000921C42654A8B521E4A83498B0029F1D139
:1011900001680A68FF2321339A430A6001688A685C
:1011A000520852008A602021816700210166FFF702
:1011B00023FE10BD10B5014640318B8B846F026851
:1011C000222C04D0906908210843906110BD928CB4
:1011D0001A40436D1A70426D521C42654A8B521E72
:1011E0004A83498B0029F1D101680A68FF23213322
:1011F0009A430A6001688A68520852008A60202176
:10120000816700210166FFF7F7FD10BD70B5044648
:1012100080682169E26908436169002511432268F9
:1012200008431168404B1940014311602168486828
:10123000032212039043E26810434860A169206AC8
:101240002268084391680B231B0299430143916074
:101250003648006B8007800F06D0012815D0022881
:1012600015D003280FD010200122E169D203304E9F
:1012700091422ED100280CD002280DD004281DD078
:1012800008284AD120E00220EEE70420ECE70820FD
:10129000EAE7FFF70DFA13E06168264A480880186C
:1012A000FEF71EFF80B201461039B14235D8204901
:1012B000491C01400007400F084321E0FFF708FAEE
:1012C000616840004A08EAE76168012248081204A0
:1012D000E5E7002806D0022807D0042813D0082804
:1012E0001BD116E0FFF7E4F90FE06168124A4808E5
:1012F00011E0FEF7F5FE80B201461039B1420CD87C
:101300002168C8600AE0FFF7E3F961684A0810182D
:10131000EFE7616848088018EBE7012500202066A8
:101320006066284670BD0000F369FFFF00100240B0
:10133000EFFF00000024F40000127A00FFB581B036
:1013400005460F46044660350A9E38E0701C36D0CC
:10135000FFF752F80499401AB04221D8002E1FD04E
:101360002068016849072AD5C069C043000526D412
:1013700001202168C002086220680168FF22A132B2
:1013800091430160206881684908490081602020FC
:101390006067A067E06700202874032005B0F0BDF7
:1013A00020680168FF22A1329143016020688168B2
:1013B00049084900816020206067A067EBE720684A
:1013C000C1693846884305D0002103988142BDD0C9
:1013D0000020E3E70121F8E710B50248FFF796FB8C
:1013E00010BD000090000020F8B5040C8BB226461A
:1013F00082B25E430D0C1046370C584336048019F8
:101400000021794116466E43370C36048019794124
:1014100026466E438919F8BD8307FF22DB0E9A40EA
:101420008907090E9940002808DB830809489B00BA
:101430001B18186890430843186070470007000F96
:101440000838830804489B001B18D8699043084358
:10145000D861704700E400E000ED00E002E008C859
:10146000121F08C1002AFAD170477047002001E01E
:1014700001C1121F002AFBD17047000010B50028DF
:1014800023D0124B0022001F196803E0814203D8C9
:101490000A4649680029F9D1002A0AD01368841A3B
:1014A0009C4204D1006818181060104602E0506099
:1014B00000E01860002907D002680B1A934203D19C
:1014C0000B68D21802604968416010BD8800002096
:1014D000002000F0BDF82A4D28606860FEF79AFFF2
:1014E000FFF763FDFFF70EFDFFF740FD254E304689
:1014F000FEF7CCFE244B242224A12E48FFF798FCB3
:1015000001222C486968FFF721FCA8680128FCD15A
:1015100033461C2228A12748FFF78AFC2C6823E0C9
:1015200027463346012239462248FFF781FC2078BE
:10153000202807D129688C4204D0E8688000FEF793
:10154000A5FE08E06121FEF7CBFD88000C491031B3
:101550000858FEF751FEE868646841004018FEF73D
:1015600095FE3846FFF78AFF20782A28D8D13346DF
:101570000B2219A10F48FFF75BFC0020A860C4E70D
:10158000000000208813000020A10700456E74654C
:1015900072206120737472696E672E20417420740A
:1015A000686520656E64207772697465202A200D55
:1015B0000A000000900000204D6F727A6520656E71
:1015C000636F64696E6720697320676F696E672E49
:1015D0002E2E0D0A000000000D0A5468617473205D
:1015E000616C6C00F0B50B30C108C900144F0026C7
:1015F000144A0FE003688B420BD38B4205D95C1A67
:101600004318456830C3083B00E04368136002C0DC
:1016100004E0021D10680028ECD13046002803D1F8
:101620003868002801D00020F0BD064A0648106046
:10163000064A121AD208D20044C001203860D7E707
:101640008C000020880000201401002010030020DE
:1016500010B504460820FFF7C5FF04700021416063
:1016600010BD000000000000000001020304060796
:10167000080900000000010203040000313131318B
:101680000000000033313131000000003131310001
:1016900031333131000000003333313100000000BC
:1016A000333131003131000031313331000000007D
:1016B0003331333100000000313331003133333105
:1016C00000000000333331003331000031000000EE
:1016D000313131330000000033313133000000007C
:1016E0003131330033333133000000003331330004
:1016F0003133000033313333000000003133330025
:101700003133333300000000333333003333000010
:101710003300000034170008000000209000000093
:101720005C140008C4170008900000208006000028
:101730006C14000800000000000000000000000021
:1017400090010000F016000884160008B01600088A
:10175000A0160008CC160008A8160008C416000839
:101760007C160008A416000800170008EC160008F4
:10177000901600080C170008C81600080817000883
:10178000BC160008E4160008B81600088C160008FD
:1017900010170008E0160008D0160008FC16000814
:1017A000D8160008F416000898160008010000007A
:1017B000040000000000000000127A000000000099
:0417C0000000000025
:04000005080000B13E
:00000001FF
